{
  "contractName": "SquareVerifier",
  "abi": [
    {
      "constant": false,
      "inputs": [
        {
          "name": "a",
          "type": "uint256[2]"
        },
        {
          "name": "b",
          "type": "uint256[2][2]"
        },
        {
          "name": "c",
          "type": "uint256[2]"
        },
        {
          "name": "input",
          "type": "uint256[2]"
        }
      ],
      "name": "verifyTx",
      "outputs": [
        {
          "name": "r",
          "type": "bool"
        }
      ],
      "payable": false,
      "stateMutability": "nonpayable",
      "type": "function"
    },
    {
      "anonymous": false,
      "inputs": [
        {
          "indexed": false,
          "name": "s",
          "type": "string"
        }
      ],
      "name": "Verified",
      "type": "event"
    }
  ],
  "bytecode": "0x608060405234801561001057600080fd5b506110f6806100206000396000f3fe608060405234801561001057600080fd5b506004361061002b5760003560e01c8063621e9ec014610030575b600080fd5b61018f600480360361014081101561004757600080fd5b8101908080604001906002806020026040519081016040528092919082600260200280828437600081840152601f19601f82011690508083019250505050505091929192908060800190600280602002604051908101604052809291906000905b828210156100fc578382604002016002806020026040519081016040528092919082600260200280828437600081840152601f19601f820116905080830192505050505050815260200190600101906100a8565b50505050919291929080604001906002806020026040519081016040528092919082600260200280828437600081840152601f19601f820116905080830192505050505050919291929080604001906002806020026040519081016040528092919082600260200280828437600081840152601f19601f82011690508083019250505050505091929192905050506101a9565b604051808215151515815260200191505060405180910390f35b60006101b3610f4a565b6040518060400160405280876000600281106101cb57fe5b60200201518152602001876001600281106101e257fe5b60200201518152508160000181905250604051806040016040528060405180604001604052808860006002811061021557fe5b602002015160006002811061022657fe5b602002015181526020018860006002811061023d57fe5b602002015160016002811061024e57fe5b6020020151815250815260200160405180604001604052808860016002811061027357fe5b602002015160006002811061028457fe5b602002015181526020018860016002811061029b57fe5b60200201516001600281106102ac57fe5b602002015181525081525081602001819052506040518060400160405280856000600281106102d757fe5b60200201518152602001856001600281106102ee57fe5b60200201518152508160400181905250606060026040519080825280602002602001820160405280156103305781602001602082028038833980820191505090505b50905060008090505b60028110156103785784816002811061034e57fe5b602002015182828151811061035f57fe5b6020026020010181815250508080600101915050610339565b50600061038582846103f0565b14156103e1577f3f3cfdb26fb5f9f1786ab4f1a1f9cd4c0b5e726cbdfc26e495261731aad44e396040518080602001828103825260228152602001806110a96022913960400191505060405180910390a16001925050506103e8565b6000925050505b949350505050565b6000807f30644e72e131a029b85045b68181585d2833e84879b9709143e1f593f0000001905061041e610f7e565b610426610562565b905080608001515160018651011461043d57600080fd5b610445610fc6565b6040518060400160405280600081526020016000815250905060008090505b86518110156104db578387828151811061047a57fe5b60200260200101511061048c57600080fd5b6104cc826104c7856080015160018501815181106104a657fe5b60200260200101518a85815181106104ba57fe5b60200260200101516109b0565b610a44565b91508080600101915050610464565b506104fe8183608001516000815181106104f157fe5b6020026020010151610a44565b90506105448560000151866020015161051684610af7565b85604001516105288a60400151610af7565b876060015161053a8960000151610af7565b8960200151610b91565b610554576001935050505061055c565b600093505050505b92915050565b61056a610f7e565b60405180604001604052807f061bb6871a28f40c5b227f1678d776a4eafbe31333987d4ebec4ab074f3e0e4f81526020017f3045fe0605ca7857606cc0b0abcfb29780bf1a3347628130d5cfeff32acd74968152508160000181905250604051806040016040528060405180604001604052807f177eff7d4225e1dd8f63a525bfa91230ab990e4242e533de87bcd22af093edcc81526020017f1bf72cebff83a9225acdfd97c9828097c936793edfff375e894bb781e96efb01815250815260200160405180604001604052807f0f7c7fec5e0c482b4b76aa75abd6958d4ca91131feb4183684d17b31ea3057bf81526020017f2c457a02567047bfea465d77d89467480c0c2de3a4c1fc017461a21c38e3ed538152508152508160200181905250604051806040016040528060405180604001604052807f1d77996abda1784d838f24812d74dd6499ed8faa21e17d99da69abcccaaf76b981526020017f195296e7ae4d3b7d40d3eab8f6a332d59f42c1ec2a1c611545ea57c9a6c47e12815250815260200160405180604001604052807f120440c04fd65c6fa327641030ebebb4468d784b715ac9d7e5e6824f183a036381526020017f20b658de604d4e38b599b355096a85259e7f73a6597d25fd553808950080f8398152508152508160400181905250604051806040016040528060405180604001604052807f1007f89440377b28584ab5f43616c9ecec2fcf301a092283c159557de443214e81526020017f065e2f0dc63c4726c61eaab5c97c5d4faec9fa222a9acbbbe2320da33397b7a0815250815260200160405180604001604052807f221f79a6ed289aebabf423d956fcc6f06d8075bff1bd17355b10027575b8f5a081526020017f19124e43002b0b6f011acb2d34ec15c846c52dbc2f5df8544856357515db7c9d8152508152508160600181905250600360405190808252806020026020018201604052801561085157816020015b61083e610fe0565b8152602001906001900390816108365790505b50816080018190525060405180604001604052807f209d19e1cc252101e200e0d2d4e4888796e4c883ecc40dafb0bf2a83f2744e2c81526020017f0f569abf48d78f8673d13b2eeea9a7da6b5af4a0047356309a0a87d72ca88f7681525081608001516000815181106108c057fe5b602002602001018190525060405180604001604052807f0df5c8f8581d11d1535eb8dcf7e07752c8f11eb788c8a7ab32b4ec25c47f6a8881526020017f13845370efaa00d87c10f170b359dbe768abebf27b0b21915dc5f5c2e194d70a815250816080015160018151811061093157fe5b602002602001018190525060405180604001604052807f09f299ed5a58f0c3fc58826f8451bc18d0140ff39a513c45890c5cc24c636b6281526020017f04c13b79e1f2e89d98950a27b97c9e17e26e075d90b7338451ffe69b8f50954381525081608001516002815181106109a257fe5b602002602001018190525090565b6109b8610fc6565b6109c0610ffa565b8360000151816000600381106109d257fe5b6020020181815250508360200151816001600381106109ed57fe5b6020020181815250508281600260038110610a0457fe5b6020020181815250506000606083608084600060076107d05a03f190508060008114610a2f57610a31565bfe5b5080610a3c57600080fd5b505092915050565b610a4c610fc6565b610a5461101c565b836000015181600060048110610a6657fe5b602002018181525050836020015181600160048110610a8157fe5b602002018181525050826000015181600260048110610a9c57fe5b602002018181525050826020015181600360048110610ab757fe5b602002018181525050600060608360c084600060066107d05a03f190508060008114610ae257610ae4565bfe5b5080610aef57600080fd5b505092915050565b610aff610fc6565b60007f30644e72e131a029b85045b68181585d97816a916871ca8d3c208c16d87cfd47905060008360000151148015610b3c575060008360200151145b15610b60576040518060400160405280600081526020016000815250915050610b8c565b60405180604001604052808460000151815260200182856020015181610b8257fe5b0683038152509150505b919050565b600060606004604051908082528060200260200182016040528015610bd057816020015b610bbd610fe0565b815260200190600190039081610bb55790505b50905060606004604051908082528060200260200182016040528015610c1057816020015b610bfd61103e565b815260200190600190039081610bf55790505b5090508a82600081518110610c2157fe5b60200260200101819052508882600181518110610c3a57fe5b60200260200101819052508682600281518110610c5357fe5b60200260200101819052508482600381518110610c6c57fe5b60200260200101819052508981600081518110610c8557fe5b60200260200101819052508781600181518110610c9e57fe5b60200260200101819052508581600281518110610cb757fe5b60200260200101819052508381600381518110610cd057fe5b6020026020010181905250610ce58282610cf5565b9250505098975050505050505050565b60008151835114610d0557600080fd5b6000835190506000600682029050606081604051908082528060200260200182016040528015610d445781602001602082028038833980820191505090505b50905060008090505b83811015610eea57868181518110610d6157fe5b602002602001015160000151826000600684020181518110610d7f57fe5b602002602001018181525050868181518110610d9757fe5b602002602001015160200151826001600684020181518110610db557fe5b602002602001018181525050858181518110610dcd57fe5b602002602001015160000151600060028110610de557fe5b6020020151826002600684020181518110610dfc57fe5b602002602001018181525050858181518110610e1457fe5b602002602001015160000151600160028110610e2c57fe5b6020020151826003600684020181518110610e4357fe5b602002602001018181525050858181518110610e5b57fe5b602002602001015160200151600060028110610e7357fe5b6020020151826004600684020181518110610e8a57fe5b602002602001018181525050858181518110610ea257fe5b602002602001015160200151600160028110610eba57fe5b6020020151826005600684020181518110610ed157fe5b6020026020010181815250508080600101915050610d4d565b50610ef3611064565b60006020826020860260208601600060086107d05a03f190508060008114610f1a57610f1c565bfe5b5080610f2757600080fd5b600082600060018110610f3657fe5b602002015114159550505050505092915050565b604051806101000160405280610f5e610fe0565b8152602001610f6b61103e565b8152602001610f78610fe0565b81525090565b604051806101e00160405280610f92610fe0565b8152602001610f9f61103e565b8152602001610fac61103e565b8152602001610fb961103e565b8152602001606081525090565b604051806040016040528060008152602001600081525090565b604051806040016040528060008152602001600081525090565b6040518060600160405280600390602082028038833980820191505090505090565b6040518060800160405280600490602082028038833980820191505090505090565b6040518060800160405280611051611086565b815260200161105e611086565b81525090565b6040518060200160405280600190602082028038833980820191505090505090565b604051806040016040528060029060208202803883398082019150509050509056fe5472616e73616374696f6e207375636365737366756c6c792076657269666965642ea165627a7a72305820602d3f244592e9a85fb2165c25e855c89083f801461a0b84c930f1d2b9f4970d0029",
  "source": "pragma solidity >=0.4.21 <0.6.0;\n\nimport \"./ERC721Mintable.sol\";\nimport \"./verifier.sol\";\n// TODO define a contract call to the zokrates generated solidity contract <Verifier> or <renamedVerifier>\n\ncontract SquareVerifier is Verifier {\n\n}\n\n// TODO define another contract named SolnSquareVerifier that inherits from your ERC721Mintable class\ncontract SolnSquareVerifier is RealEstateERC721Token {\n\nSquareVerifier public squareContract;\n    constructor(address verifierAddress) RealEstateERC721Token() public{\n        squareContract = SquareVerifier(verifierAddress);\n    }\n    // TODO define a solutions struct that can hold an index & an address\n    struct Solutions {\n        uint256 index;\n        address to;\n    }\n\n    // TODO define an array of the above struct\n    Solutions[] SolutionsArray;\n\n    // TODO define a mapping to store unique solutions submitted\n    mapping(bytes32 => Solutions) private uniqueSolutions;\n\n    // TODO Create an event to emit when a solution is added\n    event SolutionAdded(address to, uint256 index);\n\n    // TODO Create a function to add the solutions to the array and emit the event\n    function addSolution(address _to, uint256 _index, bytes32 _key) internal {\n        Solutions memory _solution = Solutions({index : _index, to : _to});\n        SolutionsArray.push(_solution);\n        uniqueSolutions[_key] = _solution;\n        emit SolutionAdded(_to, _index);\n    }\n\n    // TODO Create a function to mint new NFT only after the solution has been verified\n\n    function mintToken(\n        address _to,\n        uint256 _tokenId,\n        uint[2] memory a,\n        uint[2][2] memory b,\n        uint[2] memory c,\n        uint[2] memory input\n    ) public {\n        // hash solution to get key\n        bytes32 key = keccak256(abi.encodePacked(a, b, c, input));\n        //  - make sure the solution is unique (has not been used before)\n        require(uniqueSolutions[key].to == address(0), \"Solution is already used.\");\n        //  verify solution\n        require(squareContract.verifyTx(a, b, c, input), \"Solution is not correct\");\n\n        addSolution(_to, _tokenId, key);\n        //  - make sure you handle metadata as well as tokenSuplly\n        super.mint(_to, _tokenId);\n    }\n\n}\n\n\n\n\n\n\n\n\n\n\n\n\n\n\n\n\n\n\n\n\n\n\n",
  "sourcePath": "/home/yahya/Desktop/udacity-term2/blockchain-capstone/eth-contracts/contracts/SolnSquareVerifier.sol",
  "compiler": {
    "name": "solc",
    "version": "0.5.8+commit.23d335f2.Emscripten.clang"
  },
  "schemaVersion": "3.0.16",
  "updatedAt": "2019-12-13T10:32:04.300Z",
  "devdoc": {
    "methods": {}
  },
  "userdoc": {
    "methods": {}
  }
}